{
  "_format": "hh-sol-artifact-1",
  "contractName": "GameStore",
  "sourceName": "contracts/GameStore.sol",
  "abi": [
    {
      "inputs": [
        {
          "internalType": "address",
          "name": "keyCoin_",
          "type": "address"
        },
        {
          "internalType": "address",
          "name": "gameToken_",
          "type": "address"
        }
      ],
      "stateMutability": "nonpayable",
      "type": "constructor"
    },
    {
      "inputs": [],
      "name": "AccessControlBadConfirmation",
      "type": "error"
    },
    {
      "inputs": [
        {
          "internalType": "address",
          "name": "account",
          "type": "address"
        },
        {
          "internalType": "bytes32",
          "name": "neededRole",
          "type": "bytes32"
        }
      ],
      "name": "AccessControlUnauthorizedAccount",
      "type": "error"
    },
    {
      "inputs": [],
      "name": "ReentrancyGuardReentrantCall",
      "type": "error"
    },
    {
      "inputs": [
        {
          "internalType": "address",
          "name": "token",
          "type": "address"
        }
      ],
      "name": "SafeERC20FailedOperation",
      "type": "error"
    },
    {
      "anonymous": false,
      "inputs": [
        {
          "indexed": true,
          "internalType": "uint256",
          "name": "gameId",
          "type": "uint256"
        },
        {
          "indexed": true,
          "internalType": "address",
          "name": "buyer",
          "type": "address"
        },
        {
          "indexed": true,
          "internalType": "address",
          "name": "vendor",
          "type": "address"
        },
        {
          "indexed": false,
          "internalType": "uint256",
          "name": "price",
          "type": "uint256"
        }
      ],
      "name": "LicensePurchased",
      "type": "event"
    },
    {
      "anonymous": false,
      "inputs": [
        {
          "indexed": true,
          "internalType": "bytes32",
          "name": "role",
          "type": "bytes32"
        },
        {
          "indexed": true,
          "internalType": "bytes32",
          "name": "previousAdminRole",
          "type": "bytes32"
        },
        {
          "indexed": true,
          "internalType": "bytes32",
          "name": "newAdminRole",
          "type": "bytes32"
        }
      ],
      "name": "RoleAdminChanged",
      "type": "event"
    },
    {
      "anonymous": false,
      "inputs": [
        {
          "indexed": true,
          "internalType": "bytes32",
          "name": "role",
          "type": "bytes32"
        },
        {
          "indexed": true,
          "internalType": "address",
          "name": "account",
          "type": "address"
        },
        {
          "indexed": true,
          "internalType": "address",
          "name": "sender",
          "type": "address"
        }
      ],
      "name": "RoleGranted",
      "type": "event"
    },
    {
      "anonymous": false,
      "inputs": [
        {
          "indexed": true,
          "internalType": "bytes32",
          "name": "role",
          "type": "bytes32"
        },
        {
          "indexed": true,
          "internalType": "address",
          "name": "account",
          "type": "address"
        },
        {
          "indexed": true,
          "internalType": "address",
          "name": "sender",
          "type": "address"
        }
      ],
      "name": "RoleRevoked",
      "type": "event"
    },
    {
      "inputs": [],
      "name": "DEFAULT_ADMIN_ROLE",
      "outputs": [
        {
          "internalType": "bytes32",
          "name": "",
          "type": "bytes32"
        }
      ],
      "stateMutability": "view",
      "type": "function"
    },
    {
      "inputs": [],
      "name": "VENDOR_ROLE",
      "outputs": [
        {
          "internalType": "bytes32",
          "name": "",
          "type": "bytes32"
        }
      ],
      "stateMutability": "view",
      "type": "function"
    },
    {
      "inputs": [],
      "name": "gameToken",
      "outputs": [
        {
          "internalType": "contract GameToken",
          "name": "",
          "type": "address"
        }
      ],
      "stateMutability": "view",
      "type": "function"
    },
    {
      "inputs": [
        {
          "internalType": "uint256",
          "name": "gameId",
          "type": "uint256"
        }
      ],
      "name": "gameVendor",
      "outputs": [
        {
          "internalType": "address",
          "name": "",
          "type": "address"
        }
      ],
      "stateMutability": "view",
      "type": "function"
    },
    {
      "inputs": [],
      "name": "getCatalog",
      "outputs": [
        {
          "internalType": "uint256[]",
          "name": "ids",
          "type": "uint256[]"
        },
        {
          "components": [
            {
              "internalType": "string",
              "name": "name",
              "type": "string"
            },
            {
              "internalType": "uint256",
              "name": "price",
              "type": "uint256"
            },
            {
              "internalType": "bool",
              "name": "isListed",
              "type": "bool"
            },
            {
              "internalType": "address",
              "name": "vendorAddress",
              "type": "address"
            }
          ],
          "internalType": "struct GameStore.GameInfo[]",
          "name": "infos",
          "type": "tuple[]"
        }
      ],
      "stateMutability": "view",
      "type": "function"
    },
    {
      "inputs": [
        {
          "internalType": "bytes32",
          "name": "role",
          "type": "bytes32"
        }
      ],
      "name": "getRoleAdmin",
      "outputs": [
        {
          "internalType": "bytes32",
          "name": "",
          "type": "bytes32"
        }
      ],
      "stateMutability": "view",
      "type": "function"
    },
    {
      "inputs": [
        {
          "internalType": "bytes32",
          "name": "role",
          "type": "bytes32"
        },
        {
          "internalType": "address",
          "name": "account",
          "type": "address"
        }
      ],
      "name": "grantRole",
      "outputs": [],
      "stateMutability": "nonpayable",
      "type": "function"
    },
    {
      "inputs": [
        {
          "internalType": "bytes32",
          "name": "role",
          "type": "bytes32"
        },
        {
          "internalType": "address",
          "name": "account",
          "type": "address"
        }
      ],
      "name": "hasRole",
      "outputs": [
        {
          "internalType": "bool",
          "name": "",
          "type": "bool"
        }
      ],
      "stateMutability": "view",
      "type": "function"
    },
    {
      "inputs": [],
      "name": "keyCoin",
      "outputs": [
        {
          "internalType": "contract IERC20",
          "name": "",
          "type": "address"
        }
      ],
      "stateMutability": "view",
      "type": "function"
    },
    {
      "inputs": [
        {
          "internalType": "uint256",
          "name": "gameId",
          "type": "uint256"
        }
      ],
      "name": "purchaseLicense",
      "outputs": [],
      "stateMutability": "nonpayable",
      "type": "function"
    },
    {
      "inputs": [
        {
          "internalType": "string",
          "name": "name",
          "type": "string"
        },
        {
          "internalType": "uint256",
          "name": "price",
          "type": "uint256"
        },
        {
          "internalType": "uint96",
          "name": "royaltyBps",
          "type": "uint96"
        },
        {
          "internalType": "string",
          "name": "uri_",
          "type": "string"
        }
      ],
      "name": "registerGame",
      "outputs": [
        {
          "internalType": "uint256",
          "name": "gameId",
          "type": "uint256"
        }
      ],
      "stateMutability": "nonpayable",
      "type": "function"
    },
    {
      "inputs": [
        {
          "internalType": "bytes32",
          "name": "role",
          "type": "bytes32"
        },
        {
          "internalType": "address",
          "name": "callerConfirmation",
          "type": "address"
        }
      ],
      "name": "renounceRole",
      "outputs": [],
      "stateMutability": "nonpayable",
      "type": "function"
    },
    {
      "inputs": [
        {
          "internalType": "bytes32",
          "name": "role",
          "type": "bytes32"
        },
        {
          "internalType": "address",
          "name": "account",
          "type": "address"
        }
      ],
      "name": "revokeRole",
      "outputs": [],
      "stateMutability": "nonpayable",
      "type": "function"
    },
    {
      "inputs": [
        {
          "internalType": "uint256",
          "name": "gameId",
          "type": "uint256"
        },
        {
          "internalType": "bool",
          "name": "listed",
          "type": "bool"
        }
      ],
      "name": "setGameListed",
      "outputs": [],
      "stateMutability": "nonpayable",
      "type": "function"
    },
    {
      "inputs": [
        {
          "internalType": "bytes4",
          "name": "interfaceId",
          "type": "bytes4"
        }
      ],
      "name": "supportsInterface",
      "outputs": [
        {
          "internalType": "bool",
          "name": "",
          "type": "bool"
        }
      ],
      "stateMutability": "view",
      "type": "function"
    }
  ],
  "bytecode": "0x60c060405260018055348015610013575f5ffd5b506040516126843803806126848339818101604052810190610035919061034f565b600161005361004861015d60201b60201c565b61018660201b60201c565b5f018190555061007367f717bd55f047d07f60c01b61018f60201b60201c565b61008d673d309ff23ab9bf7b60c01b61018f60201b60201c565b8173ffffffffffffffffffffffffffffffffffffffff1660808173ffffffffffffffffffffffffffffffffffffffff16815250506100db67d09a53cc0da63a2760c01b61018f60201b60201c565b8073ffffffffffffffffffffffffffffffffffffffff1660a08173ffffffffffffffffffffffffffffffffffffffff168152505061012967b847f9ac8c5c36a260c01b61018f60201b60201c565b61014367078705ab8c44a35560c01b61018f60201b60201c565b6101555f5f1b3361019260201b60201c565b50505061038d565b5f7f9b779b17422d0df92223018b32b4d1fa46e071723d6817e2486d003becc55f005f1b905090565b5f819050919050565b50565b5f6101a3838361028760201b60201c565b61027d5760015f5f8581526020019081526020015f205f015f8473ffffffffffffffffffffffffffffffffffffffff1673ffffffffffffffffffffffffffffffffffffffff1681526020019081526020015f205f6101000a81548160ff02191690831515021790555061021a6102ea60201b60201c565b73ffffffffffffffffffffffffffffffffffffffff168273ffffffffffffffffffffffffffffffffffffffff16847f2f8788117e7eff1d82e926ec794901d17c78024a50270940304540a733656f0d60405160405180910390a460019050610281565b5f90505b92915050565b5f5f5f8481526020019081526020015f205f015f8373ffffffffffffffffffffffffffffffffffffffff1673ffffffffffffffffffffffffffffffffffffffff1681526020019081526020015f205f9054906101000a900460ff16905092915050565b5f33905090565b5f5ffd5b5f73ffffffffffffffffffffffffffffffffffffffff82169050919050565b5f61031e826102f5565b9050919050565b61032e81610314565b8114610338575f5ffd5b50565b5f8151905061034981610325565b92915050565b5f5f60408385031215610365576103646102f1565b5b5f6103728582860161033b565b92505060206103838582860161033b565b9150509250929050565b60805160a0516122c16103c35f395f81816109fd01528181610cee015261101e01525f8181610c7f01526110b701526122c15ff3fe608060405234801561000f575f5ffd5b50600436106100f3575f3560e01c8063926a694d11610095578063c8a028a811610064578063c8a028a814610284578063d547741f146102a0578063e50d4b9b146102bc578063fe4f3470146102ec576100f3565b8063926a694d1461020b578063a217fddf14610229578063c0bf3e2314610247578063c3dfdae614610266576100f3565b80632f2ff15d116100d15780632f2ff15d1461017357806336568abe1461018f57806377dafbf0146101ab57806391d14854146101db576100f3565b806301ffc9a7146100f7578063248a9ca3146101275780632cce39e314610157575b5f5ffd5b610111600480360381019061010c91906115b8565b61030a565b60405161011e91906115fd565b60405180910390f35b610141600480360381019061013c9190611649565b610383565b60405161014e9190611683565b60405180910390f35b610171600480360381019061016c91906116f9565b61039f565b005b61018d60048036038101906101889190611791565b610533565b005b6101a960048036038101906101a49190611791565b610555565b005b6101c560048036038101906101c091906117cf565b6105d0565b6040516101d29190611809565b60405180910390f35b6101f560048036038101906101f09190611791565b610649565b60405161020291906115fd565b60405180910390f35b6102136106ac565b6040516102209190611683565b60405180910390f35b6102316106d0565b60405161023e9190611683565b60405180910390f35b61024f6106d6565b60405161025d929190611a82565b60405180910390f35b61026e6109fb565b60405161027b9190611b12565b60405180910390f35b61029e600480360381019061029991906117cf565b610a1f565b005b6102ba60048036038101906102b59190611791565b610e16565b005b6102d660048036038101906102d19190611bcd565b610e38565b6040516102e39190611c7f565b60405180910390f35b6102f46110b5565b6040516103019190611cb8565b60405180910390f35b5f7f7965db0b000000000000000000000000000000000000000000000000000000007bffffffffffffffffffffffffffffffffffffffffffffffffffffffff1916827bffffffffffffffffffffffffffffffffffffffffffffffffffffffff1916148061037c575061037b826110d9565b5b9050919050565b5f5f5f8381526020019081526020015f20600101549050919050565b6103b367293cc312268226ab60c01b611142565b6103c767a75bfe55fd02581260c01b611142565b6103db67a84b7b1bf609518a60c01b611142565b6103ef675420fa083e3e347a60c01b611142565b60025f8381526020019081526020015f2060020160019054906101000a900473ffffffffffffffffffffffffffffffffffffffff1673ffffffffffffffffffffffffffffffffffffffff163373ffffffffffffffffffffffffffffffffffffffff1614801561046e575061046d676e6b0c374d87674f60c01b611145565b5b8061049d57506104805f5f1b33610649565b801561049c575061049b67b1d16caadde5fca460c01b611145565b5b5b6104dc576040517f08c379a00000000000000000000000000000000000000000000000000000000081526004016104d390611d2b565b60405180910390fd5b6104f067e511bacc68bd531760c01b611142565b610504673da28ede8577f29160c01b611142565b8060025f8481526020019081526020015f206002015f6101000a81548160ff0219169083151502179055505050565b61053c82610383565b6105458161114f565b61054f8383611163565b50505050565b61055d61124c565b73ffffffffffffffffffffffffffffffffffffffff168173ffffffffffffffffffffffffffffffffffffffff16146105c1576040517f6697b23200000000000000000000000000000000000000000000000000000000815260040160405180910390fd5b6105cb8282611253565b505050565b5f6105e567b5643aafeaae0e0560c01b611142565b6105f967d160a4c23a255fb860c01b611142565b61060d67c945c162cfe747f460c01b611142565b60025f8381526020019081526020015f2060020160019054906101000a900473ffffffffffffffffffffffffffffffffffffffff169050919050565b5f5f5f8481526020019081526020015f205f015f8373ffffffffffffffffffffffffffffffffffffffff1673ffffffffffffffffffffffffffffffffffffffff1681526020019081526020015f205f9054906101000a900460ff16905092915050565b7fb66d507c1e3c1bc237b923feddf01f16873f6a23c218ec08d1c8983da3c5630981565b5f5f1b81565b6060806106ed677ad16298ab36615160c01b611142565b6107016726dc3ffc762d4fe960c01b611142565b610715677833b7a49f101e4b60c01b611142565b5f600180546107249190611d76565b905061073a67bec65753d3b932f460c01b611142565b8067ffffffffffffffff81111561075457610753611da9565b5b6040519080825280602002602001820160405280156107825781602001602082028036833780820191505090505b5092506107996782794e47d3520d1060c01b611142565b8067ffffffffffffffff8111156107b3576107b2611da9565b5b6040519080825280602002602001820160405280156107ec57816020015b6107d961151e565b8152602001906001900390816107d15790505b50915061080367e3789e72bef5dd1c60c01b611142565b61081767d84368308f8a5c5060c01b611142565b5f5f90505b818110156109f55761083867d375d10597e604b260c01b611142565b61084c67741ea2edc1bb29c860c01b611142565b5f60018261085a9190611dd6565b9050610870671c85b2e69486172460c01b611142565b8085838151811061088457610883611e09565b5b6020026020010181815250506108a4671455c21cc5e7126260c01b611142565b60025f8281526020019081526020015f206040518060800160405290815f820180546108cf90611e63565b80601f01602080910402602001604051908101604052809291908181526020018280546108fb90611e63565b80156109465780601f1061091d57610100808354040283529160200191610946565b820191905f5260205f20905b81548152906001019060200180831161092957829003601f168201915b5050505050815260200160018201548152602001600282015f9054906101000a900460ff161515151581526020016002820160019054906101000a900473ffffffffffffffffffffffffffffffffffffffff1673ffffffffffffffffffffffffffffffffffffffff1673ffffffffffffffffffffffffffffffffffffffff16815250508483815181106109dc576109db611e09565b5b602002602001018190525050808060010191505061081c565b50509091565b7f000000000000000000000000000000000000000000000000000000000000000081565b610a3367b783bb7edc2aacbc60c01b611142565b610a3b61133c565b610a4f67a0b327eb822ae8a460c01b611142565b610a6367e89187458d0d117860c01b611142565b610a77670dd15f96c4ab90f160c01b611142565b610a8b674a451dbcab7796cd60c01b611142565b5f60025f8381526020019081526020015f206040518060800160405290815f82018054610ab790611e63565b80601f0160208091040260200160405190810160405280929190818152602001828054610ae390611e63565b8015610b2e5780601f10610b0557610100808354040283529160200191610b2e565b820191905f5260205f20905b815481529060010190602001808311610b1157829003601f168201915b5050505050815260200160018201548152602001600282015f9054906101000a900460ff161515151581526020016002820160019054906101000a900473ffffffffffffffffffffffffffffffffffffffff1673ffffffffffffffffffffffffffffffffffffffff1673ffffffffffffffffffffffffffffffffffffffff16815250509050610bc76777f68ec9ccd3530260c01b611142565b610bdb672149ffe7e36ddf7260c01b611142565b610bef67204d9184237cac1560c01b611142565b8060400151610c33576040517f08c379a0000000000000000000000000000000000000000000000000000000008152600401610c2a90611edd565b60405180910390fd5b610c476722f2420eb374e82360c01b611142565b610c5b6740e5fa9c71cae40b60c01b611142565b610c6f67c2058937755bd7b560c01b611142565b610cc433826060015183602001517f000000000000000000000000000000000000000000000000000000000000000073ffffffffffffffffffffffffffffffffffffffff1661135e909392919063ffffffff16565b610cd867135e0801904bb8ce60c01b611142565b610cec670cb6de06985f16ae60c01b611142565b7f000000000000000000000000000000000000000000000000000000000000000073ffffffffffffffffffffffffffffffffffffffff166340c10f1933846040518363ffffffff1660e01b8152600401610d47929190611efb565b5f604051808303815f87803b158015610d5e575f5ffd5b505af1158015610d70573d5f5f3e3d5ffd5b50505050610d88670f4f59c840f267a160c01b611142565b610d9c6797f415c84dbed0f060c01b611142565b806060015173ffffffffffffffffffffffffffffffffffffffff163373ffffffffffffffffffffffffffffffffffffffff16837f3846a81a03c71d25212027d222553680c4fc1bd52b8dfb1f1fbbbcd74c8fec798460200151604051610e029190611c7f565b60405180910390a450610e136113b3565b50565b610e1f82610383565b610e288161114f565b610e328383611253565b50505050565b5f610e4d67405f7e9cbe7f28a860c01b611142565b7fb66d507c1e3c1bc237b923feddf01f16873f6a23c218ec08d1c8983da3c56309610e778161114f565b610e8b6768f21b5fcbde939a60c01b611142565b610e9f672e469675ebab671e60c01b611142565b610eb3678218f7e2dcd4792b60c01b611142565b60015f815480929190610ec590611f22565b919050559150610edf67b898a104b0ac4b1660c01b611142565b604051806080016040528089898080601f0160208091040260200160405190810160405280939291908181526020018383808284375f81840152601f19601f8201169050808301925050505050505081526020018781526020016001151581526020013373ffffffffffffffffffffffffffffffffffffffff1681525060025f8481526020019081526020015f205f820151815f019081610f809190612100565b50602082015181600101556040820151816002015f6101000a81548160ff02191690831515021790555060608201518160020160016101000a81548173ffffffffffffffffffffffffffffffffffffffff021916908373ffffffffffffffffffffffffffffffffffffffff1602179055509050506110086721043e0918bba49560c01b611142565b61101c67297165cc82249fa160c01b611142565b7f000000000000000000000000000000000000000000000000000000000000000073ffffffffffffffffffffffffffffffffffffffff1663b138398283338888886040518663ffffffff1660e01b815260040161107d959493929190612218565b5f604051808303815f87803b158015611094575f5ffd5b505af11580156110a6573d5f5f3e3d5ffd5b50505050509695505050505050565b7f000000000000000000000000000000000000000000000000000000000000000081565b5f7f01ffc9a7000000000000000000000000000000000000000000000000000000007bffffffffffffffffffffffffffffffffffffffffffffffffffffffff1916827bffffffffffffffffffffffffffffffffffffffffffffffffffffffff1916149050919050565b50565b5f60019050919050565b6111608161115b61124c565b6113cd565b50565b5f61116e8383610649565b6112425760015f5f8581526020019081526020015f205f015f8473ffffffffffffffffffffffffffffffffffffffff1673ffffffffffffffffffffffffffffffffffffffff1681526020019081526020015f205f6101000a81548160ff0219169083151502179055506111df61124c565b73ffffffffffffffffffffffffffffffffffffffff168273ffffffffffffffffffffffffffffffffffffffff16847f2f8788117e7eff1d82e926ec794901d17c78024a50270940304540a733656f0d60405160405180910390a460019050611246565b5f90505b92915050565b5f33905090565b5f61125e8383610649565b15611332575f5f5f8581526020019081526020015f205f015f8473ffffffffffffffffffffffffffffffffffffffff1673ffffffffffffffffffffffffffffffffffffffff1681526020019081526020015f205f6101000a81548160ff0219169083151502179055506112cf61124c565b73ffffffffffffffffffffffffffffffffffffffff168273ffffffffffffffffffffffffffffffffffffffff16847ff6391f5c32d9c69d2a47ea670b442974b53935d1edc7fd64eb21e047a839171b60405160405180910390a460019050611336565b5f90505b92915050565b61134461141e565b600261135661135161145f565b611488565b5f0181905550565b61136c848484846001611491565b6113ad57836040517f5274afe70000000000000000000000000000000000000000000000000000000081526004016113a49190611809565b60405180910390fd5b50505050565b60016113c56113c061145f565b611488565b5f0181905550565b6113d78282610649565b61141a5780826040517fe2517d3f000000000000000000000000000000000000000000000000000000008152600401611411929190612264565b60405180910390fd5b5050565b611426611502565b1561145d576040517f3ee5aeb500000000000000000000000000000000000000000000000000000000815260040160405180910390fd5b565b5f7f9b779b17422d0df92223018b32b4d1fa46e071723d6817e2486d003becc55f005f1b905090565b5f819050919050565b5f5f6323b872dd60e01b9050604051815f525f1960601c87166004525f1960601c86166024528460445260205f60645f5f8c5af1925060015f511483166114ef5783831516156114e3573d5f823e3d81fd5b5f883b113d1516831692505b806040525f606052505095945050505050565b5f600261151561151061145f565b611488565b5f015414905090565b6040518060800160405280606081526020015f81526020015f151581526020015f73ffffffffffffffffffffffffffffffffffffffff1681525090565b5f5ffd5b5f5ffd5b5f7fffffffff0000000000000000000000000000000000000000000000000000000082169050919050565b61159781611563565b81146115a1575f5ffd5b50565b5f813590506115b28161158e565b92915050565b5f602082840312156115cd576115cc61155b565b5b5f6115da848285016115a4565b91505092915050565b5f8115159050919050565b6115f7816115e3565b82525050565b5f6020820190506116105f8301846115ee565b92915050565b5f819050919050565b61162881611616565b8114611632575f5ffd5b50565b5f813590506116438161161f565b92915050565b5f6020828403121561165e5761165d61155b565b5b5f61166b84828501611635565b91505092915050565b61167d81611616565b82525050565b5f6020820190506116965f830184611674565b92915050565b5f819050919050565b6116ae8161169c565b81146116b8575f5ffd5b50565b5f813590506116c9816116a5565b92915050565b6116d8816115e3565b81146116e2575f5ffd5b50565b5f813590506116f3816116cf565b92915050565b5f5f6040838503121561170f5761170e61155b565b5b5f61171c858286016116bb565b925050602061172d858286016116e5565b9150509250929050565b5f73ffffffffffffffffffffffffffffffffffffffff82169050919050565b5f61176082611737565b9050919050565b61177081611756565b811461177a575f5ffd5b50565b5f8135905061178b81611767565b92915050565b5f5f604083850312156117a7576117a661155b565b5b5f6117b485828601611635565b92505060206117c58582860161177d565b9150509250929050565b5f602082840312156117e4576117e361155b565b5b5f6117f1848285016116bb565b91505092915050565b61180381611756565b82525050565b5f60208201905061181c5f8301846117fa565b92915050565b5f81519050919050565b5f82825260208201905092915050565b5f819050602082019050919050565b6118548161169c565b82525050565b5f611865838361184b565b60208301905092915050565b5f602082019050919050565b5f61188782611822565b611891818561182c565b935061189c8361183c565b805f5b838110156118cc5781516118b3888261185a565b97506118be83611871565b92505060018101905061189f565b5085935050505092915050565b5f81519050919050565b5f82825260208201905092915050565b5f819050602082019050919050565b5f81519050919050565b5f82825260208201905092915050565b8281835e5f83830152505050565b5f601f19601f8301169050919050565b5f61194482611902565b61194e818561190c565b935061195e81856020860161191c565b6119678161192a565b840191505092915050565b61197b816115e3565b82525050565b61198a81611756565b82525050565b5f608083015f8301518482035f8601526119aa828261193a565b91505060208301516119bf602086018261184b565b5060408301516119d26040860182611972565b5060608301516119e56060860182611981565b508091505092915050565b5f6119fb8383611990565b905092915050565b5f602082019050919050565b5f611a19826118d9565b611a2381856118e3565b935083602082028501611a35856118f3565b805f5b85811015611a705784840389528151611a5185826119f0565b9450611a5c83611a03565b925060208a01995050600181019050611a38565b50829750879550505050505092915050565b5f6040820190508181035f830152611a9a818561187d565b90508181036020830152611aae8184611a0f565b90509392505050565b5f819050919050565b5f611ada611ad5611ad084611737565b611ab7565b611737565b9050919050565b5f611aeb82611ac0565b9050919050565b5f611afc82611ae1565b9050919050565b611b0c81611af2565b82525050565b5f602082019050611b255f830184611b03565b92915050565b5f5ffd5b5f5ffd5b5f5ffd5b5f5f83601f840112611b4c57611b4b611b2b565b5b8235905067ffffffffffffffff811115611b6957611b68611b2f565b5b602083019150836001820283011115611b8557611b84611b33565b5b9250929050565b5f6bffffffffffffffffffffffff82169050919050565b611bac81611b8c565b8114611bb6575f5ffd5b50565b5f81359050611bc781611ba3565b92915050565b5f5f5f5f5f5f60808789031215611be757611be661155b565b5b5f87013567ffffffffffffffff811115611c0457611c0361155f565b5b611c1089828a01611b37565b96509650506020611c2389828a016116bb565b9450506040611c3489828a01611bb9565b935050606087013567ffffffffffffffff811115611c5557611c5461155f565b5b611c6189828a01611b37565b92509250509295509295509295565b611c798161169c565b82525050565b5f602082019050611c925f830184611c70565b92915050565b5f611ca282611ae1565b9050919050565b611cb281611c98565b82525050565b5f602082019050611ccb5f830184611ca9565b92915050565b5f82825260208201905092915050565b7f47616d6553746f72653a206e6f7420617574686f72697a6564000000000000005f82015250565b5f611d15601983611cd1565b9150611d2082611ce1565b602082019050919050565b5f6020820190508181035f830152611d4281611d09565b9050919050565b7f4e487b71000000000000000000000000000000000000000000000000000000005f52601160045260245ffd5b5f611d808261169c565b9150611d8b8361169c565b9250828203905081811115611da357611da2611d49565b5b92915050565b7f4e487b71000000000000000000000000000000000000000000000000000000005f52604160045260245ffd5b5f611de08261169c565b9150611deb8361169c565b9250828201905080821115611e0357611e02611d49565b5b92915050565b7f4e487b71000000000000000000000000000000000000000000000000000000005f52603260045260245ffd5b7f4e487b71000000000000000000000000000000000000000000000000000000005f52602260045260245ffd5b5f6002820490506001821680611e7a57607f821691505b602082108103611e8d57611e8c611e36565b5b50919050565b7f47616d6553746f72653a206e6f74206c697374656400000000000000000000005f82015250565b5f611ec7601583611cd1565b9150611ed282611e93565b602082019050919050565b5f6020820190508181035f830152611ef481611ebb565b9050919050565b5f604082019050611f0e5f8301856117fa565b611f1b6020830184611c70565b9392505050565b5f611f2c8261169c565b91507fffffffffffffffffffffffffffffffffffffffffffffffffffffffffffffffff8203611f5e57611f5d611d49565b5b600182019050919050565b5f819050815f5260205f209050919050565b5f6020601f8301049050919050565b5f82821b905092915050565b5f60088302611fc57fffffffffffffffffffffffffffffffffffffffffffffffffffffffffffffffff82611f8a565b611fcf8683611f8a565b95508019841693508086168417925050509392505050565b5f612001611ffc611ff78461169c565b611ab7565b61169c565b9050919050565b5f819050919050565b61201a83611fe7565b61202e61202682612008565b848454611f96565b825550505050565b5f5f905090565b612045612036565b612050818484612011565b505050565b5b81811015612073576120685f8261203d565b600181019050612056565b5050565b601f8211156120b85761208981611f69565b61209284611f7b565b810160208510156120a1578190505b6120b56120ad85611f7b565b830182612055565b50505b505050565b5f82821c905092915050565b5f6120d85f19846008026120bd565b1980831691505092915050565b5f6120f083836120c9565b9150826002028217905092915050565b61210982611902565b67ffffffffffffffff81111561212257612121611da9565b5b61212c8254611e63565b612137828285612077565b5f60209050601f831160018114612168575f8415612156578287015190505b61216085826120e5565b8655506121c7565b601f19841661217686611f69565b5f5b8281101561219d57848901518255600182019150602085019450602081019050612178565b868310156121ba57848901516121b6601f8916826120c9565b8355505b6001600288020188555050505b505050505050565b6121d881611b8c565b82525050565b828183375f83830152505050565b5f6121f78385611cd1565b93506122048385846121de565b61220d8361192a565b840190509392505050565b5f60808201905061222b5f830188611c70565b61223860208301876117fa565b61224560408301866121cf565b81810360608301526122588184866121ec565b90509695505050505050565b5f6040820190506122775f8301856117fa565b6122846020830184611674565b939250505056fea2646970667358221220b9ae57b8c53fa80fa54875e8e528552d2c7b8a068696cbc47a1f4eaebe2f30ed64736f6c634300081c0033",
  "linkReferences": {},
  "deployedLinkReferences": {}
}