{
  "_format": "hh-sol-artifact-1",
  "contractName": "ActivationContract",
  "sourceName": "contracts/ActivationContract.sol",
  "abi": [
    {
      "inputs": [
        {
          "internalType": "address",
          "name": "gameToken_",
          "type": "address"
        }
      ],
      "stateMutability": "nonpayable",
      "type": "constructor"
    },
    {
      "inputs": [
        {
          "internalType": "uint256",
          "name": "tokenId",
          "type": "uint256"
        },
        {
          "internalType": "bytes32",
          "name": "machineHash",
          "type": "bytes32"
        }
      ],
      "name": "activateLicense",
      "outputs": [],
      "stateMutability": "nonpayable",
      "type": "function"
    },
    {
      "inputs": [
        {
          "internalType": "uint256",
          "name": "tokenId",
          "type": "uint256"
        }
      ],
      "name": "deactivateLicense",
      "outputs": [],
      "stateMutability": "nonpayable",
      "type": "function"
    },
    {
      "inputs": [],
      "name": "gameToken",
      "outputs": [
        {
          "internalType": "contract IERC1155",
          "name": "",
          "type": "address"
        }
      ],
      "stateMutability": "view",
      "type": "function"
    },
    {
      "inputs": [
        {
          "internalType": "address",
          "name": "owner",
          "type": "address"
        },
        {
          "internalType": "uint256",
          "name": "tokenId",
          "type": "uint256"
        }
      ],
      "name": "getLicense",
      "outputs": [
        {
          "components": [
            {
              "internalType": "bool",
              "name": "isActive",
              "type": "bool"
            },
            {
              "internalType": "bytes32",
              "name": "hardwareHash",
              "type": "bytes32"
            },
            {
              "internalType": "uint256",
              "name": "activatedAt",
              "type": "uint256"
            }
          ],
          "internalType": "struct ActivationContract.LicenseInfo",
          "name": "",
          "type": "tuple"
        }
      ],
      "stateMutability": "view",
      "type": "function"
    },
    {
      "inputs": [
        {
          "internalType": "address",
          "name": "owner",
          "type": "address"
        },
        {
          "internalType": "uint256",
          "name": "tokenId",
          "type": "uint256"
        }
      ],
      "name": "isActive",
      "outputs": [
        {
          "internalType": "bool",
          "name": "",
          "type": "bool"
        }
      ],
      "stateMutability": "view",
      "type": "function"
    }
  ],
  "bytecode": "0x60a060405234801561000f575f5ffd5b50604051610cfd380380610cfd83398181016040528101906100319190610100565b61004b672c58475a7c28307460c01b61009f60201b60201c565b610065675f951b226dca007a60c01b61009f60201b60201c565b8073ffffffffffffffffffffffffffffffffffffffff1660808173ffffffffffffffffffffffffffffffffffffffff16815250505061012b565b50565b5f5ffd5b5f73ffffffffffffffffffffffffffffffffffffffff82169050919050565b5f6100cf826100a6565b9050919050565b6100df816100c5565b81146100e9575f5ffd5b50565b5f815190506100fa816100d6565b92915050565b5f60208284031215610115576101146100a2565b5b5f610122848285016100ec565b91505092915050565b608051610bb361014a5f395f8181610289015261039d0152610bb35ff3fe608060405234801561000f575f5ffd5b5060043610610055575f3560e01c8063662d336314610059578063c3dfdae614610075578063d266e83b14610093578063f54a777a146100c3578063f5bfc2e0146100df575b5f5ffd5b610073600480360381019061006e9190610750565b61010f565b005b61007d610287565b60405161008a91906107f5565b60405180910390f35b6100ad60048036038101906100a89190610849565b6102ab565b6040516100ba91906108a1565b60405180910390f35b6100dd60048036038101906100d891906108ed565b61034a565b005b6100f960048036038101906100f49190610849565b610627565b6040516101069190610998565b60405180910390f35b61012367f741c404353821fe60c01b6106f6565b61013767577aa63d39bc122560c01b6106f6565b61014b675ddaca23bedbdf0b60c01b6106f6565b61015f67c5c2aef5c8cad8e360c01b6106f6565b5f5f3373ffffffffffffffffffffffffffffffffffffffff1673ffffffffffffffffffffffffffffffffffffffff1681526020019081526020015f205f8281526020019081526020015f205f015f9054906101000a900460ff166101f8576040517f08c379a00000000000000000000000000000000000000000000000000000000081526004016101ef90610a0b565b60405180910390fd5b61020c67bac74e1cc9f2be5060c01b6106f6565b6102206732d70d5eab8612cf60c01b6106f6565b5f5f5f3373ffffffffffffffffffffffffffffffffffffffff1673ffffffffffffffffffffffffffffffffffffffff1681526020019081526020015f205f8381526020019081526020015f205f015f6101000a81548160ff02191690831515021790555050565b7f000000000000000000000000000000000000000000000000000000000000000081565b5f6102c06742e36feed929e02460c01b6106f6565b6102d467e2891801820f929060c01b6106f6565b6102e867818db6940c8c2d0260c01b6106f6565b5f5f8473ffffffffffffffffffffffffffffffffffffffff1673ffffffffffffffffffffffffffffffffffffffff1681526020019081526020015f205f8381526020019081526020015f205f015f9054906101000a900460ff16905092915050565b61035e67cbb92d31cd24968160c01b6106f6565b61037267e63eb4a8f5a86d0360c01b6106f6565b610386670b9b48c74aa8d2c560c01b6106f6565b61039a675dcee6f430bfb74360c01b6106f6565b5f7f000000000000000000000000000000000000000000000000000000000000000073ffffffffffffffffffffffffffffffffffffffff1662fdd58e33856040518363ffffffff1660e01b81526004016103f5929190610a47565b602060405180830381865afa158015610410573d5f5f3e3d5ffd5b505050506040513d601f19601f820116820180604052508101906104349190610a82565b11610474576040517f08c379a000000000000000000000000000000000000000000000000000000000815260040161046b90610af7565b60405180910390fd5b61048867ba8d01e6619d741d60c01b6106f6565b61049c67861dd3a52f2adc0a60c01b6106f6565b6104b067def4b119576ab16460c01b6106f6565b6104c467dfa0e7247926d46760c01b6106f6565b5f5f3373ffffffffffffffffffffffffffffffffffffffff1673ffffffffffffffffffffffffffffffffffffffff1681526020019081526020015f205f8381526020019081526020015f205f015f9054906101000a900460ff161561055e576040517f08c379a000000000000000000000000000000000000000000000000000000000815260040161055590610b5f565b60405180910390fd5b61057267cf93d33508b096e960c01b6106f6565b61058667309cc719dfe9488760c01b6106f6565b6040518060600160405280600115158152602001828152602001428152505f5f3373ffffffffffffffffffffffffffffffffffffffff1673ffffffffffffffffffffffffffffffffffffffff1681526020019081526020015f205f8481526020019081526020015f205f820151815f015f6101000a81548160ff02191690831515021790555060208201518160010155604082015181600201559050505050565b61062f6106f9565b61064367ceb1ec4c39b4414460c01b6106f6565b61065767bef9d6d245a0300e60c01b6106f6565b61066b6773c1c5d90f841fbd60c01b6106f6565b5f5f8473ffffffffffffffffffffffffffffffffffffffff1673ffffffffffffffffffffffffffffffffffffffff1681526020019081526020015f205f8381526020019081526020015f206040518060600160405290815f82015f9054906101000a900460ff1615151515815260200160018201548152602001600282015481525050905092915050565b50565b60405180606001604052805f151581526020015f81526020015f81525090565b5f5ffd5b5f819050919050565b61072f8161071d565b8114610739575f5ffd5b50565b5f8135905061074a81610726565b92915050565b5f6020828403121561076557610764610719565b5b5f6107728482850161073c565b91505092915050565b5f73ffffffffffffffffffffffffffffffffffffffff82169050919050565b5f819050919050565b5f6107bd6107b86107b38461077b565b61079a565b61077b565b9050919050565b5f6107ce826107a3565b9050919050565b5f6107df826107c4565b9050919050565b6107ef816107d5565b82525050565b5f6020820190506108085f8301846107e6565b92915050565b5f6108188261077b565b9050919050565b6108288161080e565b8114610832575f5ffd5b50565b5f813590506108438161081f565b92915050565b5f5f6040838503121561085f5761085e610719565b5b5f61086c85828601610835565b925050602061087d8582860161073c565b9150509250929050565b5f8115159050919050565b61089b81610887565b82525050565b5f6020820190506108b45f830184610892565b92915050565b5f819050919050565b6108cc816108ba565b81146108d6575f5ffd5b50565b5f813590506108e7816108c3565b92915050565b5f5f6040838503121561090357610902610719565b5b5f6109108582860161073c565b9250506020610921858286016108d9565b9150509250929050565b61093481610887565b82525050565b610943816108ba565b82525050565b6109528161071d565b82525050565b606082015f82015161096c5f85018261092b565b50602082015161097f602085018261093a565b5060408201516109926040850182610949565b50505050565b5f6060820190506109ab5f830184610958565b92915050565b5f82825260208201905092915050565b7f41637469766174696f6e3a206e6f7420616374697665000000000000000000005f82015250565b5f6109f56016836109b1565b9150610a00826109c1565b602082019050919050565b5f6020820190508181035f830152610a22816109e9565b9050919050565b610a328161080e565b82525050565b610a418161071d565b82525050565b5f604082019050610a5a5f830185610a29565b610a676020830184610a38565b9392505050565b5f81519050610a7c81610726565b92915050565b5f60208284031215610a9757610a96610719565b5b5f610aa484828501610a6e565b91505092915050565b7f41637469766174696f6e3a206e6f74206c6963656e7365206f776e65720000005f82015250565b5f610ae1601d836109b1565b9150610aec82610aad565b602082019050919050565b5f6020820190508181035f830152610b0e81610ad5565b9050919050565b7f41637469766174696f6e3a20616c7265616479206163746976650000000000005f82015250565b5f610b49601a836109b1565b9150610b5482610b15565b602082019050919050565b5f6020820190508181035f830152610b7681610b3d565b905091905056fea2646970667358221220eaea362daa98f1da73b9cc4a967742b51808b0389352c38c746b26226f240e3b64736f6c634300081c0033",
  "linkReferences": {},
  "deployedLinkReferences": {}
}